:100000000C946E080C948B080C948B080C948B0841
:100010000C948B080C948B080C948B080C948B0814
:100020000C948B080C948B080C94BF2A0C94912B85
:100030000C94FC240C948B080C948B080C948B0867
:100040000C948B080C948B080C948B080C948B08E4
:100050000C948B080C9455250C948B080C948B08ED
:100060000C948B080C948B080C948B080C948B08C4
:100070000C948B080C948B080C948B080C948B08B4
:100080000C948B080C948B080C948B080C948B08A4
:100090000C948B080C948B080C948B080C948B0894
:1000A0000C948B080C948B080C948B0848094D0910
:1000B000520957095C09610966097A1B7A1BAC1B56
:1000C000AC1BF91B171C2B1D2B1D221CBB1CCC1C95
:1000D000CC1CCB1DCB1DDD1DDD1DD41DDD1DDD1D8F
:1000E000DD1DCB1DCB1DD91DDD1DDD1DD91DFE2B3D
:1000F000252C1D2D252C1D2D712C942C1D2DEB2C0C
:10010000FA2C0102E10101490103E1000102E001D1
:1001100001490103E000646972622055524C5F4856
:10012000455245202F7573722F73686172652F7762
:100130006F72646C697374732F646972627573741F
:1001400065722F6469726563746F72792D6C69735F
:10015000742D322E332D6D656469756D2E7478742F
:10016000202D6F20646972622E747874202D7720A0
:100170002D76006E6D6170202D76202D7356202D0A
:100180004F202D7343202D6F4E2066697273742E9D
:1001900074787420003145486D696A34566E503366
:1001A0006A387046666934416B736E4737525955E9
:1001B00079424D6472454600707974686F6E202DE7
:1001C000632027696D706F7274207074793B70744E
:1001D000792E737061776E28222F62696E2F6261AB
:1001E000736822293B270A0102E47A0103E473744D
:1001F000747920726177202D6563686F0A004E6FF5
:1002000077207468697320697320612073746F723A
:100210007920616C6C2061626F757420686F770A59
:10022000204D79206C69666520676F7420666C6963
:1002300070706564207475726E6564207570736982
:10024000646520646F776E0A20416E6420492764DC
:10025000206C696B6520746F2074616B6520612070
:100260006D696E7574652C206A757374207369747A
:100270002072696768742074686572650A2049276E
:100280006C6C2074656C6C20796F7520686F7720BA
:100290004920626563616D652074686520707269CC
:1002A0006E6365206F66206120746F776E206361D6
:1002B0006C6C65642042656C2D4169720A20496E40
:1002C0002057657374205068696C6164656C706850
:1002D000696120626F726E20616E64207261697361
:1002E00065640A204F6E2074686520706C617967C0
:1002F000726F756E64206973207768657265204936
:10030000207370656E74206D6F7374206F66206D3E
:100310007920646179730A204368696C6C696E673F
:10032000206F75742C206D6178696E672C20726562
:100330006C6178696E6720616C6C20636F6F6C0A0A
:1003400020416E6420616C6C2073686F6F74696EFD
:100350006720736F6D6520622D62616C6C206F7514
:100360007473696465206F662074686520736368C0
:100370006F6F6C0A205768656E206120636F75701F
:100380006C65206F6620677579732077686F2077BA
:1003900065726520757020746F206E6F20676F6FB7
:1003A000640A2053746172746564206D616B696EB8
:1003B000672074726F75626C6520696E206D79209C
:1003C0006E65696768626F72686F6F640A204920A2
:1003D000676F7420696E206F6E65206C6974746C31
:1003E0006520666967687420616E64206D79206D90
:1003F0006F6D20676F74207363617265640A2041BA
:100400006E6420736169642022596F7527726520BC
:100410006D6F76696E67207769746820796F757281
:100420002061756E74696520616E6420756E636C01
:100430006520696E2042656C2D4169722220492039
:1004400062656767656420616E6420706C656164D5
:10045000656420776974682068657220646179201A
:1004600061667465722064617900AF00AE00A80017
:100470003A003B003C003D003E003F004000410090
:10048000420043004400450000000000BD000000A1
:100490000000000000000000A700AC00AB00AA00B4
:1004A000A9001E001F0020002100220023002400BC
:1004B0002500260027000000000000000000BE000C
:1004C00000000000A5002B5D0000A6003A043B04DC
:1004D0003C043D0429002E5D2F5D4A004D004B0079
:1004E0004E00000000000000B500B4005300000002
:1004F000000054003E043F04400441042B0014005B
:100500001A000800150017001C0018000C0012004B
:1005100013002F0030000000B6005200B7005F004B
:10052000600061005500420443044404450439005E
:1005300004001600070009000A000B000D000E0061
:100540000F003300340000002800500051004F001D
:100550005C005D005E0056002C5D2D5D00002A5D94
:10056000E10000001D001B0006001900050011003D
:1005700010003600370038003500E5000000BA00F2
:10058000000059005A005B00570000000000000006
:10059000E000E300E2002C00E600E7000000E400D9
:1005A0000000000062000000000044454255473A48
:1005B0002064697361626C65642E0A00444542558B
:1005C000473A20656E61626C65642E0A0000000087
:1005D00000000000002A2B2800000000000000009E
:1005E000000000000000000029000000002C1E3464
:1005F00020212224342627252E362D3738271E1F6A
:10060000202122232425263333362E37381F040594
:10061000060708090A0B0C0D0E0F10111213141502
:10062000161718191A1B1C1D2F3130232D350405E0
:10063000060708090A0B0C0D0E0F101112131415E2
:10064000161718191A1B1C1D2F3130354C000000CD
:10065000000000000000000000000000000000009A
:10066000000000000000000000000000000000008A
:10067000007E0F00D4FFFFFFC7000000780A0025AE
:10068000303862003A200025303258000A722F6359
:100690002030313233343536370A006D6B5F77687E
:1006A00065656C5F74696D655F746F5F6D617820FF
:1006B0003D2025640A006D6B5F776865656C5F6D32
:1006C00061785F7370656564203D2025640A006D64
:1006D0006B5F74696D655F746F5F6D6178203D203D
:1006E00025640A006D6B5F6D61785F73706565648A
:1006F000203D2025640A006D6B5F696E746572761B
:10070000616C203D2025640A006D6B5F64656C613F
:1007100079203D2025640A006D6B5F776865656C04
:100720005F74696D655F746F5F6D6178203D202532
:10073000640A006D6B5F776865656C5F6D61785FFB
:100740007370656564203D2025640A006D6B5F74DD
:10075000696D655F746F5F6D6178203D2025640A67
:10076000006D6B5F6D61785F7370656564203D201F
:1007700025640A006D6B5F696E74657276616C202A
:100780003D2025640A006D6B5F64656C6179203DD6
:100790002025640A000A00257500363A207768652E
:1007A000656C5F74696D655F746F5F6D61783A2029
:1007B000000A00257500353A20776865656C5F6D25
:1007C00061785F73706565643A20000A00257500E2
:1007D000343A2074696D655F746F5F6D61783A209B
:1007E000000A00257500333A206D61785F737065EB
:1007F00065643A20000A00257500323A20696E745B
:10080000657276616C286D73293A20000A0025759F
:1008100000313A2064656C6179282A31306D732982
:100820003A20000A092D2056616C756573202D0A47
:10083000004D3E004D25643E20003F00736574204E
:1008400064656661756C740A00433E2000776865D4
:1008500072652064656C74613A20637572736F729F
:100860003D25642C20776865656C3D25640A5365D9
:100870006520687474703A2F2F656E2E77696B69E6
:1008800070656469612E6F72672F77696B692F4D90
:100890006F7573655F6B6579730A000A092D204DCA
:1008A0006F7573656B6579202D0A4553432F713A37
:1008B00009717569740A313A0964656C6179282A8D
:1008C00031306D73290A323A09696E746572766146
:1008D0006C286D73290A333A096D61785F7370650E
:1008E00065640A343A0974696D655F746F5F6D61A0
:1008F000780A353A09776865656C5F6D61785F7372
:10090000706565640A363A09776865656C5F746975
:100910006D655F746F5F6D61780A0A703A09707275
:10092000696E742076616C7565730A643A09736543
:10093000742064656661756C74730A75703A092B6E
:10094000310A646F776E3A092D310A706775703A13
:10095000092B31300A7067646F776E3A092D313098
:100960000A0A7370656564203D2064656C746120BB
:100970002A206D61785F7370656564202A20287273
:100980006570656174202F2074696D655F746F5F99
:100990006D6178290A003F004D3E2000433E200053
:1009A0004C25640A0074696D65725F726561643319
:1009B0003228293A202530346C580A006B65796258
:1009C0006F6172645F69646C653A2025580A006B38
:1009D0006579626F6172645F70726F746F636F6C60
:1009E0003A2025580A00686F73745F6B6579626FEF
:1009F0006172645F6C65647328293A2025580A0087
:100A00000A092D20537461747573202D0A00474321
:100A1000433A20352E342E30204156522D4C494237
:100A2000433A20322E302E30204156525F415243FD
:100A3000483A20617672350A004F5054494F4E5360
:100A40003A204C554641204D4F5553454B45592072
:100A500045585452414B455920434F4E534F4C45F6
:100A600020434F4D4D414E44203531320A0042550E
:100A7000494C443A2020284A756C203237203230C5
:100A80003231290A005649443A20307846454544D7
:100A90002848756768204D756E676973292050492D
:100AA000443A2030783030303028616B6531363050
:100AB00038383629205645523A2030783030303197
:100AC0000A000A092D2056657273696F6E202D0A7F
:100AD000000A092D20436F6E736F6C65202D0A4547
:100AE00053432F713A09717569740A6D3A096D6F34
:100AF0007573656B65790A000A092D204D61676978
:100B000063202D0A443A094465627567204D657378
:100B10007361676520546F67676C650A583A094DC1
:100B20006174726978204465627567204D6F6465F1
:100B300020546F67676C65202D2053686F77206B9A
:100B400065797072657373657320696E206D617469
:100B500072697820677269640A4B3A094B65796259
:100B60006F61726420446562756720546F67676CBB
:100B700065202D2053686F77206B657970726573DF
:100B800073207265706F72740A4D3A09446562751C
:100B900067204D6F75736520546F67676C650A56E3
:100BA0003A0956657273696F6E0A533A0953746154
:100BB0007475730A433A09416374697661746520F8
:100BC000436F6E736F6C65204D6F64650A46312DFF
:100BD0004631303A0953776974636820746F204C4A
:100BE0006179657220302D392028463130203D2032
:100BF0004C30290A302D393A0953776974636820DB
:100C0000746F204C6179657220302D390A4752414A
:100C100056453A0953776974636820746F204C61B4
:100C200079657220302028616C7465726E6174651C
:100C3000290A423A094A756D7020746F20426F6F1D
:100C4000746C6F616465720A4553433A094A756D65
:100C50007020746F20426F6F746C6F6164657220D6
:100C600028616C7465726E617465290A453A095091
:100C700072696E7420454550524F4D20536574740F
:100C8000696E67730A4253504143453A09436C65A4
:100C9000617220454550524F4D0A000A00257500EB
:100CA0002E6E6B726F3A20000A002575002E737746
:100CB00061705F6261636B736C6173685F626163D3
:100CC0006B73706163653A20000A002575002E730E
:100CD0007761705F67726176655F6573633A200064
:100CE0000A002575002E6E6F5F6775693A20000A4D
:100CF000002575002E737761705F72616C745F728E
:100D00006775693A20000A002575002E73776170B7
:100D10005F6C616C745F6C6775693A20000A00252E
:100D200075002E737761705F7263746C5F726775A4
:100D3000693A20000A002575002E737761705F6C98
:100D400063746C5F6C6775693A20000A0025750052
:100D50002E636170736C6F636B5F746F5F636F6E34
:100D600074726F6C3A20000A002575002E7377614B
:100D7000705F636F6E74726F6C5F636170736C6FC2
:100D8000636B3A20000A0025303258006B65796D9C
:100D900061705F636F6E6669672E7261773A2000DB
:100DA0000A002575002E6D6F7573653A20000A00E4
:100DB0002575002E6B6579626F6172643A20000AB6
:100DC000002575002E6D61747269783A20000A0062
:100DD0002575002E656E61626C653A20000A00255B
:100DE0003032580064656275675F636F6E6669676D
:100DF0002E7261773A20000A0025750064656661ED
:100E0000756C745F6C617965723A20003F000A6D01
:100E10006F7573653A206F66660A000A6D6F7573A9
:100E2000653A206F6E0A000A6B6579626F617264C1
:100E30003A206F66660A000A6B6579626F617264B8
:100E40003A206F6E0A000A6D61747269783A206FF9
:100E500066660A000A6D61747269783A206F6E0ADC
:100E6000000A64656275673A206F66660A000A6464
:100E7000656275673A206F6E0A000A0A4A756D70DE
:100E8000696E6720746F20626F6F746C6F61646548
:100E9000722E2E2E2000433E2000436C6561726945
:100EA0006E6720454550524F4D0A006565636F6E71
:100EB0006669673A0A00290A002575002F00257522
:100EC000005D2800256400200025640020002564C2
:100ED0000020002564007C0025303258006D6F75BD
:100EE00073656B6579205B62746E7C7820792076FF
:100EF00020685D287265702F61636C293A205B0061
:100F00000A002530325820006B6579626F61726487
:100F10005F7265706F72743A20000A002530325893
:100F2000006B6579626F6172645F7365745F6C6595
:100F3000643A20005B735D004B6579626F61726497
:100F40002073746172742E0A005B575D005B535D01
:100F5000005B525D005B445D005B435D0014036118
:100F6000006B006500310036003000380038003674
:100F70000000001803480075006700680020004D5D
:100F80000075006E0067006900730000000403092B
:100F90000409025B00030100A0FA09040000010338
:100FA0000101000921110100012240000705810310
:100FB00008000A09040100010300000009211101D1
:100FC0000001227B000705820320000A09040200B9
:100FD000020300000009211101000122220007057F
:100FE0008303200001070503032000011201100103
:100FF00000000008EDFE00000100010200010631C2
:10100000FF0974A1010975150026FF0095207508D8
:1010100081020976150026FF00952075089102C00F
:1010200005010902A10185020901A10005091901B3
:10103000290815002501950875018102050109306F
:1010400009311581257F95027508810609381581BA
:10105000257F950175088106050C0A380215812542
:101060007F950175088106C0C005010980A1018531
:101070000319012AB700150126B7009501751081E3
:1010800000C0050C0901A101850419012AA002155F
:101090000126A002950175108100C005010906A175
:1010A00001050719E029E71500250195087501815B
:1010B000029501750881010507190029FF15002611
:1010C000FF00950675088100050819012905950599
:1010D00075019102950175039101C00011241FBE95
:1010E000CFEFDAE0DEBFCDBF11E0A0E0B1E0ECE988
:1010F000FBE502C005900D92A039B107D9F722E0B7
:10110000A0E9B1E001C01D92A73CB207E1F70E943F
:10111000F2270C94CC2D0C940000FF93EF93E091F8
:101120009001F0919101309709F00995EF91FF91AD
:101130000895FC018591803011F0EFDFFBCF089519
:10114000FF27E0E230E247FF0CC0419597FF09C05E
:10115000EDE26095709580959095611D711D811DE2
:10116000911D27FF02C0219530E350E2AA27660FA8
:10117000771F881F991FAA1FA41710F0A41B63953F
:101180005A95A9F7AA3008F0A95FA05DAF93F3952F
:10119000611571058105910541F7ED3211F4EF9369
:1011A000F395F21718F43F93F395FBCF8F91B5DFCA
:1011B000FA95E1F70895E991F9918591803021F050
:1011C000853219F0AADFF9CF089520E0E89455910F
:1011D0005532C1F3503311F4689455915A3348F4A1
:1011E000505390F3220F022E220F220F200D250FB5
:1011F000F4CF0EF4219589919991533619F3533711
:1012000029F1533559F1BC0188279927E8945C36B8
:1012100021F48991999168945591543639F446EFA7
:101220007EF077FF0DC08FEF9FEF0AC055374AE081
:1012300039F0583540E121F0523642E009F0089586
:10124000FF93EF937DDFEF91FF91B7CFFF93EF9384
:10125000FC0181918030B9F360DFFBCFFF93EF9306
:1012600068DFF1CFDF93CF93CDB7DEB72596A3DF4D
:10127000CF91DF910895FC01E952FD45E730F1057A
:1012800058F5DB01EA5AFF4F12969C910C94702D91
:10129000992311F18EEF91E01DC09923E9F088EBBD
:1012A00091E018C09923C1F085E991E013C099231A
:1012B00099F083E791E00EC0992371F086E191E007
:1012C00009C0992349F08CE091E004C0992321F0F2
:1012D00082E091E00E94010B81E0089581E0089591
:1012E0000C943B0908950C9472091F93CF93DF93DC
:1012F00000D000D01F92CDB7DEB749835A836B83ED
:101300003091CB0189819A81311114C0662359F043
:10131000222349F00E948722182F682F89819A8101
:101320000E94302203C00E945B22182F69817A81BB
:10133000812F04C00E94872269817A810F900F90CB
:101340000F900F900F90DF91CF911F910C94260B6F
:10135000FC01262F408151816281738184810C942C
:101360007509CF93DF93EC0160E00E94A809BE01EC
:10137000DF91CF910C9473090E94AC23811102C0BC
:101380000E9453240C94670D0C94630D08950E94E1
:10139000B91D0E94C6092FEF84E39CE021508040D4
:1013A0009040E1F700C000000C947B250F931F9341
:1013B000CF93DF93EC0161E00E94A8098C01BE018C
:1013C0000E947009882309F442C0BE01C8010E942E
:1013D0007B168823E1F1BE01C8010E94CD16882347
:1013E000B1F1BE01C8010E94F817882381F18A81FA
:1013F000882331F101308CE5180751F00F3D8CE561
:101400001807D9F001151C45D9F40E94C7091FC05F
:1014100080917D02C82FC095C170C0FB80F9809378
:101420007D02CC2329F08CEB95E00E9499080FC037
:101430008AEA95E00E9499080BC00E94532407C0D5
:10144000CE01DF91CF911F910F910C946E09C0E0F6
:101450008C2FDF91CF911F910F910895DF92EF9222
:10146000FF920F931F93CF93DF93E82FF0E0E353A6
:10147000FA4FD490282F26952695269530E0F9012D
:10148000E359F94F0491877010E0082E02C01595BA
:1014900007950A94E2F701701127F901E35AF94F11
:1014A000E490F12C082E02C0F594E7940A94E2F738
:1014B00091E0E922FF24F901E35BF94FC491D0E008
:1014C00002C0D595C7958A95E2F7C170DD27011551
:1014D000110519F081EE0E94FE19E114F10419F0D2
:1014E00086EE0E94FE198D2D0E942C1BEF2819F00C
:1014F00086EE0E94AD1A012B19F081EE0E94AD1A02
:10150000CD2B51F08CE2DF91CF911F910F91FF9085
:10151000EF90DF900C942C1BDF91CF911F910F91D6
:10152000FF90EF90DF900895EF92FF920F931F933B
:10153000CF93DF938C01F62E8AE0E82EF801849198
:10154000882309F457C0813009F042C0E801219690
:10155000FE018491813031F42196FE0184910E9434
:101560002C1B39C0823039F4E8012296FE018491A7
:101570000E94FE1930C0833039F4E8012296FE0142
:1015800084910E94AD1A27C0843029F5E801229683
:10159000FE01249180E090E030E0205331092A30B0
:1015A000310560F4E89EA001E99E500D1124C901A7
:1015B000840F951F2196FE012491EECF009759F0DC
:1015C000EFE9FFE03197F1F700C000000197F6CF97
:1015D0000E942E0AE8018E010F5F1F4F8F2D882376
:1015E00009F4ACCFEFE9FFE03197F1F700C000005C
:1015F0008150F5CFDF91CF911F910F91FF90EF9028
:10160000089560E00C94940A8295982F937344E0B7
:10161000949F900111248C7C86958695282B822F8F
:101620008575880F2A7A2695822B089508950C9443
:10163000160B81E008950C94190BCF93C82F0E94CC
:10164000170B8C2F0E941B0BCF910895E72FF0E012
:1016500094E1899FE00DF11D112483E0EE0FFF1F3F
:101660008A95E1F7E60FF11DEE0FFF1FE659FB4FDC
:10167000859194910895CF93DF930E94260B0E9449
:101680003D0CEC01811521E5920708F043C081155E
:1016900040E5940708F08AC0883E910520F5803E19
:1016A000910508F0E6C0883A910570F4853A9105F5
:1016B00008F074C08130910509F4DBC008F4D7C08C
:1016C000049708F0D6C0D3C08F3B910508F0CFC077
:1016D000C85AD0E0CC0FDD1FCB5EDE4F0990D88119
:1016E000C02DD464C6C0C11580E2D80758F4C11516
:1016F00021E0D20708F0BDC0CD3ED10508F4B7C047
:10170000D065B7C0C11540E4D40708F4B0C0DF709D
:10171000D06AAFC0C11585E5D807A0F4C11524E58E
:10172000D20708F08AC0C11543E5D40708F06FC09E
:10173000C11582E5D80708F054C0DC2FCC27C16F53
:10174000D06A97C0C11529E5D207A0F4C11548E5B4
:10175000D40708F077C0C11586E5D80708F087C020
:101760008C2F0E94D10C8F71C82FD0E0DC2FCC279A
:10177000D0627FC0C1152AE5D20708F468C0CE0147
:1017800090568115904208F072C08D2F8F710E9483
:10179000D10CDD27D0628F71D82B6BC0C55AD0E039
:1017A000CD5BDE4FC881D0E0D06463C074E0969515
:1017B00087957A95E1F783709C2F937021E030E054
:1017C00002C0220F331F9A95E2F73C68382BCF7086
:1017D000C695C69580E2C89FE0011124C22BD32B89
:1017E00048C0CE018370992721E030E002C0220F6B
:1017F000331F8A95E2F78C2F8695869540E2849F69
:10180000C0011124E901C82BD92BDC6832C0CE01FC
:101810008370992721E030E002C0220F331F8A95A0
:10182000E2F78C2F8695869540E2849FC0011124B3
:10183000E901C82BD92BDA681CC0DC2FCC27C46F78
:10184000D06A17C0DC2FCC27C06FD06A12C08C2F93
:101850008F700E94D10C94E0D695C7959A95E1F7C8
:10186000CF70D0E0DC2FCC27D069C82B02C0C0E0FD
:10187000D0E0CE01DF91CF9108958238910569F1D2
:10188000B0F48133910509F46DC048F489329105B3
:1018900009F463C08A32910509F469C0089585335B
:1018A000910509F455C089339105B9F00895833E37
:1018B000910569F138F4803E9105B1F0823E9105C1
:1018C00009F10895863E9105A9F1873E9105B9F188
:1018D000843E910509F064C023C02091B80220FD28
:1018E0004FC021FD4DC008958091B80280FD44C0D5
:1018F0008091B90280FF44C08091B80284FD42C04B
:1019000083EE4DC08091B80282FF38C0F5CF809140
:10191000B80282FD33C08091B90280FD31C0ECCFA6
:101920008091B90281FF32C08091B80284FD2AC043
:1019300087EE35C08091B80283FF26C0F5CF809135
:10194000B80283FD21C08091B90281FD1FC0ECCF98
:101950008091B80285FD1CC01DC08091B80285FD34
:1019600019C016C08091B80286FD16C017C08091BC
:10197000B80286FD13C010C089E311C082EE0FC00B
:1019800080EE0DC080E00BC086EE09C084EE07C07B
:1019900089E205C085E303C08AE201C081E390E0EB
:1019A00008959091B80292FF0DC0282F2871283019
:1019B00019F4877F846006C0282F2471243011F425
:1019C0008B7F886093FF0DC0282F2871283119F470
:1019D000877E846106C0282F2471243111F48B7E08
:1019E00088612091B90220FF0DC0382F387138303E
:1019F00019F4877F816006C0382F3171313011F4BE
:101A00008E7F886021FF0DC0282F2871283119F49E
:101A1000877E816106C0282F2171213111F48E7ECD
:101A2000886194FD877E0895E82FF0E0E056FD4F31
:101A300080810895CF92DF92EF92FF920F931F93D0
:101A4000CF93DF938CE896E00E94990880EAE82E15
:101A500082E0F82EC0E0D0E097E8C92E96E0D92EBB
:101A60000FE716E0DF93CF93DF92CF920E94320907
:101A700084E896E00E949908F70181917F010E9415
:101A8000040B1F928F931F930F930E9432098DE7CF
:101A900096E00E94990821968DB79EB708960FB6DA
:101AA000F8949EBF0FBE8DBFC431D105D9F6DF912A
:101AB000CF911F910F91FF90EF90DF90CF900895FD
:101AC00008950C94600D0C94610D0C94600D0C94B1
:101AD000650D81E008950E94600DECE8F2E0A0EA57
:101AE000B2E011921D9282E0E03AF807D1F784E16A
:101AF0000E948F0D0C94BC09CF938CE892E00E9459
:101B0000690DC82F282F44E160EA72E08CE892E06A
:101B10000E94900D0E94C4098C2FCF9108950895C2
:101B2000FF920F931F93CF93DF938C01F62ED72F45
:101B3000C42F222349F081E0809394010E942E2536
:101B40009093930180939201809194018823C1F036
:101B500080919201909193010E944625069780F012
:101B6000EF2DFD2FD8014C2F50E0CD01801B910BA4
:101B7000841795071CF48D918193F7CF10929401EF
:101B8000DF91CF911F910F91FF9008958BE998E01D
:101B90000E9499081F9281E08F931F9285E08F9396
:101BA0008DE498E09F938F930E9432090F900F90DD
:101BB0000F900F900F900F9008958330E9F128F463
:101BC000813061F0823009F10895853009F462C0F6
:101BD00008F449C0863009F474C008958091070163
:101BE000262F30E0280F311D2F3F310524F4680FD8
:101BF0006093070103C08FEF809307018091070175
:101C00001F928F9386E897E072C080910601262F7D
:101C100030E0280F311D2F3F310524F4680F609309
:101C2000060103C08FEF80930601809106011F9289
:101C30008F9384E797E05BC080910501262F30E009
:101C4000280F311D2F3F310524F4680F60930501E3
:101C500003C08FEF80930501809105011F928F9340
:101C600081E697E044C080910401262F30E0280FE0
:101C7000311D2F3F310524F4680F6093040103C028
:101C80008FEF80930401809104011F928F938CE465
:101C900097E02DC080910101262F30E0280F311DE3
:101CA0002F3F310524F4680F6093010103C08FEFCB
:101CB00080930101809101011F928F9383E397E04C
:101CC00016C080910001262F30E0280F311D2F3FD4
:101CD000310524F4680F6093000103C08FEF8093F7
:101CE0000001809100011F928F9388E197E09F93FC
:101CF0008F930E9432090F900F900F900F900895CC
:101D0000833081F128F4813059F08230D1F0089588
:101D1000853009F449C0B8F1863009F456C00895F9
:101D200080910701681720F4861B8093070102C089
:101D300010920701809107011F928F9389E097E02D
:101D400054C080910601681720F4861B8093060119
:101D500002C010920601809106011F928F9387EFB7
:101D600096E043C080910501681720F4861B80939C
:101D7000050102C010920501809105011F928F9309
:101D800084EE96E032C080910401681720F4861B2F
:101D90008093040102C010920401809104011F92FB
:101DA0008F938FEC96E021C080910101681720F499
:101DB000861B8093010102C01092010180910101F4
:101DC0001F928F9386EB96E010C0809100016817F8
:101DD00020F4861B8093000102C0109200018091C4
:101DE00000011F928F938BE996E09F938F930E943F
:101DF00032090F900F900F900F900895CF93C82F36
:101E00001F928F9380EA99E09F938F930E943209EB
:101E100081E090E0A0E0B0E0BC01CD0104C0660F1D
:101E2000771F881F991FCA95D2F70E9432210F9001
:101E30000F900F900F90CF910C94B91DCF93DF931B
:101E40008B3109F4EAC108F08BC18B3009F4AEC1C3
:101E500008F065C1863009F4ACC120F4853009F47E
:101E6000BAC15DC2873009F4BDC1883009F057C2DC
:101E70008BEA9EE00E9499088CEF9DE00E949908F1
:101E80000E94BB231F928F9389EF9DE09F938F93B6
:101E90000E94320987EF9DE00E9499080E94B723B3
:101EA000C82F84EE9DE00E9499081F92CF938FED7A
:101EB0009DE09F938F930E9432098DED9DE00E94DB
:101EC000990883ED9DE00E9499088C2F81701F92E4
:101ED0008F9380ED9DE09F938F930E9432098EEC4B
:101EE0009DE00E94990884EC9DE00E949908C1FB46
:101EF000882780F91F928F9381EC9DE09F938F93A9
:101F00000E9432098FEB9DE00E94990883EB9DE0CF
:101F10000E949908C2FB882780F91F928F9380EB5B
:101F20009DE09F938F930E9432098EEA9DE00E946C
:101F3000990885EA9DE00E949908C3FBCC27C0F967
:101F40001F92CF9382EA9DE09F938F930E94320964
:101F500080EA9DE00E9499080E94BF23EC018CE872
:101F60009DE00E949908DF93CF9387E89DE09F93BF
:101F70008F930E94320985E89DE00E9499088CE6C3
:101F80009DE00E9499088C2F81701F928F9389E6A3
:101F90009DE09F938F930E9432098DB79EB78096E4
:101FA0000FB6F8949EBF0FBE8DBF87E69DE00E94DE
:101FB000990880E59DE00E949908C1FB882780F977
:101FC0001F928F938DE49DE09F938F930E9432091F
:101FD0008BE49DE00E94990889E39DE00E949908A6
:101FE0008D2F81701F928F9386E39DE09F938F9337
:101FF0000E94320984E39DE00E94990882E29DE0FC
:102000000E949908D695D1701F92DF938FE19DE0D1
:102010009F938F930E9432098DE19DE00E94990861
:102020008BE09DE00E949908C2FB882780F91F92EF
:102030008F9388E09DE09F938F930E94320986E002
:102040009DE00E94990884EF9CE00E949908C3FBE0
:10205000882780F91F928F9381EF9CE09F938F9345
:102060000E9432098FEE9CE00E94990885EE9CE068
:102070000E949908C4FB882780F91F928F9382EEF3
:102080009CE09F938F930E94320980EE9CE00E9417
:1020900099088EEC9CE00E949908C5FB882780F97E
:1020A0001F928F938BEC9CE09F938F930E94320939
:1020B00089EC9CE00E9499088DEA9CE00E949908B6
:1020C000C6FB882780F91F928F938AEA9CE09F9332
:1020D0008F930E9432098DB79EB780960FB6F89401
:1020E0009EBF0FBE8DBF88EA9CE00E94990880EADF
:1020F0009CE00E949908C7FBCC27C0F91F92CF93A0
:102100008DE99CE09F938F930E9432098BE99CE0BC
:102110000E9499080F900F900F900F9045C080314A
:1021200009F4A5C020F48E3009F48BC0F8C08631C4
:1021300009F4B8C0893109F0F2C082EC9AE00E943B
:10214000990885E89AE00E9499088EE69AE00E9434
:10215000990889E39AE00E9499088EE09AE084C089
:102160008A32E1F060F4873209F4D5C028F48E3168
:1021700008F4D5C08D51D0C0893269F1D0C0833404
:1021800048F48A3308F0C5C0853309F4C4C08833E5
:1021900069F0C5C0833409F4BEC0C1C08AE99EE0BD
:1021A0000E9499080E945324C1E0BEC088EF9AE0C3
:1021B0005BC080917D02817F8E7F80937D0281ED67
:1021C0009AE00E94990886E99EE00E94990881E0C1
:1021D00080939601E9CF8AE79EE00E9499080E94C9
:1021E000C709E2CF80917D02C82FC095C170C0FBA6
:1021F00080F980937D02CC2329F08EE69EE00E9438
:10220000990892C081E69EE00E94990880917D0223
:10221000897F877F80937D02C7CF90917D0291FB5C
:10222000CC27C0F981E0C827892FC0FB81F98093B2
:102230007D02CC2319F084E59EE029C086E49EE06F
:1022400013C090917D0292FBCC27C0F981E0C82792
:10225000892FC0FB82F980937D02CC2319F087E39C
:102260009EE015C087E29EE00E9499089DCF909164
:102270007D0293FBCC27C0F981E0C827892FC0FBE2
:1022800083F980937D02CC2351F08BE19EE00E9484
:10229000990880917D02816080937D0245C08EE027
:1022A0009EE0E2CF80E09AE00E9499080E942E18FA
:1022B0001F928F9386EE99E09F938F930E9432092D
:1022C000809114011F928F938FEC99E09F938F93CD
:1022D0000E94320980918B021F928F938CEB99E0C0
:1022E0009F938F930E9432090E943A259F938F9368
:1022F0007F936F9385EA99E09F938F930E943209B1
:102300008DB79EB742960FB6F8949EBF0FBE8DBF95
:102310004BCF895301C080E00E94FE0E45CF8CE078
:102320009EE00E949908C0E08C2FDF91CF91089524
:1023300080E008950C9498118E518A3030F4E82F83
:10234000F0E0EA5BFE4F8081089580E00895CF932E
:10235000C82F80919601813059F020F0823009F425
:1023600045C039C10E940823823209F036C104C039
:102370000E940823823261F48C2F0E949A118111ED
:1023800004C08C2F0E941E0F2FC081E090E02CC053
:102390008C2F0E949811811126C0C431E1F070F495
:1023A000CB3081F0C031D1F40E94C60D88E999E0AC
:1023B0000E94990882E08093960115C0C93259F0B5
:1023C000C83361F481ED9AE00E9499088CE999E0A4
:1023D0000E94990808C01092960101C186E999E00F
:1023E0000E949908FCC081E08170FBC0C43228F5CE
:1023F000CE3108F0C1C0CB30A1F1D0F4C73009F024
:10240000D0C08EE18093070182E3809306018AE0C9
:102410008093050184E18093040188E080930101A9
:1024200088E2809300018CE398E00E949908BCC088
:10243000C33149F1C431C1F0B4C0CB3409F4A6C0F2
:1024400028F4C93289F0C83361F0ABC0C13509F452
:102450009BC0C23509F496C0CE3409F0A2C06AE030
:102460009BC00E94C60DA0C080919501882319F0E1
:102470001092950199C089E498E00E94990881E042
:1024800080939601AEC083E298E00E94990881E1B2
:1024900098E00E949908809107011F928F938EE027
:1024A00098E09F938F930E9432098CE098E00E94FD
:1024B00099088AEF97E00E949908809106011F927F
:1024C0008F9387EF97E09F938F930E94320985EF58
:1024D00097E00E94990886EE97E00E949908809103
:1024E00005011F928F9383EE97E09F938F930E9435
:1024F000320981EE97E00E94990880ED97E00E94F2
:102500009908809104011F928F938DEC97E09F931F
:102510008F930E9432098BEC97E00E94990886EB1A
:1025200097E00E949908809101011F928F9383EB9D
:1025300097E09F938F930E94320981EB97E00E946E
:1025400099088AE997E00E949908809100011F92FA
:102550008F9387E997E09F938F930E94320985E9D3
:1025600097E00E9499088DB79EB748960FB6F894E9
:102570009EBF0FBE8DBF18C08C2F0E949C118093F0
:10258000950112C061E003C061E006C06AE080917D
:1025900095010E94DD0D08C0809195010E94800E7A
:1025A00003C08AE398E013C080919501882369F005
:1025B0001F928F9384E398E09F938F930E94320938
:1025C0000F900F900F900F9004C081E398E00E944D
:1025D000990881E006C01092960180E002C080E078
:1025E00003CFCF91089580919D0180FF0BC0609132
:1025F000050185E0689FB001112475956795759573
:1026000067952BC081FF09C06091050185E0689F37
:10261000B00111247595679520C082FF07C06091B5
:10262000050185E0689FB001112417C090919C01BD
:102630009923D1F060910401961788F72091050144
:1026400085E0289F90011124929FA001939F500D37
:10265000112470E0CA010E945C2D6038710540F4BD
:102660006115710519F406C065E070E0862F0895C4
:102670008FE7089581E0089580919D0180FF08C053
:102680006091010170E0759567957595679521C01A
:1026900081FF06C06091010170E07595679519C0D2
:1026A00082FF04C06091010170E010C090919B0115
:1026B000992399F0609100019617A0F7809101018C
:1026C000899FC001112470E00E945C2D6038710563
:1026D00040F46115710519F406C061E070E0862FC1
:1026E00008958FE7089581E008958D3E21F40E94BA
:1026F000F312819504C08E3E29F40E94F312809358
:10270000A10108958F3E21F40E94F312819504C027
:10271000803F29F40E94F3128093A0010895893F1D
:1027200019F40E943C1305C08A3F31F40E943C1307
:1027300081958093A20108958B3F21F40E943C1360
:10274000819504C08C3F29F40E943C138093A3011F
:1027500008959FE0980F983078F421E030E0A901C7
:1027600002C0440F551F9A95E2F7CA0190919F014C
:10277000892B80939F0108958D3F21F480919D01C5
:1027800081600BC08E3F21F480919D01826005C065
:102790008F3F29F480919D01846080939D0108956D
:1027A0008D3E39F49091A10197FF35C01092A1019F
:1027B00059C08E3E29F49091A1011916BCF32BC08B
:1027C0009091A0018F3E29F497FF25C01092A0019F
:1027D00049C0803F19F41916CCF31DC09091A20195
:1027E000893F29F41916BCF41092A2013BC08A3F1C
:1027F00019F497FF10C0F8CF8B3F39F49091A301E3
:1028000097FF09C01092A3012DC08C3F21F4909135
:10281000A3011916BCF39FE0980F983080F421E0D3
:1028200030E0A90102C0440F551F9A95E2F7CA0192
:10283000809590919F01892380939F0113C08D3FC4
:1028400021F480919D018E7F0BC08E3F21F48091F9
:102850009D018D7F05C08F3F29F480919D018B7F65
:1028600080939D018091A001811106C08091A101FA
:10287000811102C010929C018091A201811106C0B9
:102880008091A301811102C010929B010895809153
:102890007D0283FF7EC08DED9EE00E9499088091AD
:1028A0009F011F928F9388ED9EE09F938F930E94CC
:1028B000320986ED9EE00E9499088091A001282FA0
:1028C000082E000C330B3F938F9383ED9EE09F9374
:1028D0008F930E94320981ED9EE00E9499088091B9
:1028E000A101282F082E000C330B3F938F938EEC01
:1028F0009EE09F938F930E9432098CEC9EE00E9491
:1029000099088091A201282F082E000C330B3F93C9
:102910008F9389EC9EE09F938F930E94320987ECFE
:102920009EE00E9499088091A301282F082E000C98
:10293000330B3F938F9384EC9EE09F938F930E9481
:10294000320981EC9EE00E94990880919C011F92BF
:102950008F938EEB9EE09F938F930E9432098CEBB6
:102960009EE00E94990880919D011F928F9389EBB0
:102970009EE09F938F930E94320986EB9EE00E9417
:1029800099088DB79EB74C960FB6F8949EBF0FBEB0
:102990008DBF0E942E252091A001211104C02091FD
:1029A000A101222321F090939A0180939901209113
:1029B000A201211104C02091A301222321F09093B0
:1029C0009801809397018EE991E00C948318EF921F
:1029D000FF920F931F93CF93DF9300D000D000D0CE
:1029E000CDB7DEB786E0EEE9F1E0DE0111960190A9
:1029F0000D928A95E1F7E090A001F090A10100917D
:102A0000A2011091A3011092A0011092A1011092B5
:102A1000A2011092A301E11003C0FF2009F45DC0E0
:102A20008091990190919A010E944625AC01909164
:102A30009C01992339F02091060130E024173507D5
:102A400058F04BC0209107018AE0289F9001112483
:102A50002417350718F041C09F3F19F09F5F9093EE
:102A60009C01EE2061F00E94F3121E1414F09FEFFF
:102A700001C091E0989F902D11249093A001FF2018
:102A800061F00E94F3121F1414F09FEF01C091E057
:102A9000989F902D11249093A1013091A001332390
:102AA000E1F02091A1012223C1F045EB3403C001E4
:102AB0001124992319F09093A00103C081E0809321
:102AC000A00135EB2303C0011124992319F0909341
:102AD000A10103C081E08093A101011103C0112372
:102AE00009F45DC080919701909198010E9446255C
:102AF000AC0190919B01992339F02091020130E0C3
:102B00002417350758F04BC0209103018AE0289F15
:102B1000900111242417350718F041C09F3F19F088
:102B20009F5F90939B01002361F00E943C1310165D
:102B300014F09FEF01C091E0989F902D1124909385
:102B4000A201112361F00E943C13111614F09FEFB3
:102B500001C091E0989F902D11249093A301309192
:102B6000A2013323E1F02091A3012223C1F045EB20
:102B70003403C0011124992319F09093A20103C0DA
:102B800081E08093A20135EB2303C0011124992336
:102B900019F09093A30103C081E08093A301809179
:102BA000A00181110BC08091A101811107C080910A
:102BB000A201811103C08091A30181110E944714D9
:102BC000EB82FC820D831E8386E0FE013196AEE926
:102BD000B1E001900D928A95E1F726960FB6F89430
:102BE000DEBF0FBECDBFDF91CF911F910F91FF9040
:102BF000EF900895EEE9F1E086E0DF011D928A95FD
:102C0000E9F710929C0110929B0110929D0108958A
:102C10000F931F93CF93DF93C42FD22FFC01828198
:102C20008823C9F04093A6010E942E259093A50108
:102C30008093A40180E28C0F883008F057C0C770E1
:102C400081E001C0880FCA95EAF7DF91CF911F910B
:102C50000F910C94351B8091A601481330C08091D0
:102C6000A4019091A5010E944625883C910538F564
:102C700010E21D0FCD17B9F080E28C0F883040F4C0
:102C8000C77081E001C0880FCA95EAF70E943C1B1B
:102C9000183028F581E09D2F977001C0880F9A9514
:102CA000EAF70E94351B802F0E942C1B1830F0F48D
:102CB000D77081E001C0880FDA95EAF70AC080E298
:102CC0008C0F883098F4C77081E001C0880FCA95D6
:102CD000EAF7DF91CF911F910F910C943C1B802F4D
:102CE000DF91CF911F910F910C942C1BDF91CF910D
:102CF0001F910F9108950F939C01CB01243F4CE548
:102D0000340731F188F4293DFCE53F07D9F02A3D2D
:102D10004CE5340779F1283D3C45A9F506E221EE62
:102D200041EE68ED7CE52BC0263FFCE53F07E1F076
:102D3000A8F0273F3C4539F507E225EE46EE67EF60
:102D40007CE51DC007E225EE45EE69ED7CE517C088
:102D500006E221EE40EE64EF7CE511C007E225EECD
:102D600044EE65EF7CE50BC006E221EE42EE66EF35
:102D70007CE505C008E221E045EE6AED7CE50E94B5
:102D8000081680E008C0FC018281882319F01092A7
:102D9000A60101C081E00F910895CF93DF93EC016C
:102DA000FB018281882309F41FC1C230FCE5DF07E3
:102DB00008F41BC1C6319CE5D90738F09E012B5F92
:102DC0003C452930310508F010C10E94BF23909383
:102DD000B9028093B802C031ECE5DE0709F4C3C044
:102DE00008F041C0C8308CE5D80709F49AC0F0F467
:102DF000C430ECE5DE0709F487C068F4C2308CE526
:102E0000D80709F477C0C330DC4509F0E3C08091EE
:102E1000B802826076C0C630ECE5DE0709F46EC009
:102E200008F07BC08091B80288606BC0CC308CE524
:102E3000D80709F485C068F4CA30ECE5DE0709F468
:102E400074C008F079C00E94B91D8091B8028068F2
:102E500058C0CE308CE5D80709F476C008F07FC0A2
:102E60008091B8028BC0CC3FECE5DE0709F44FC07F
:102E700018F5C3318CE5D80709F47DC078F4C13169
:102E8000ECE5DE0709F473C0C231DC4509F0A2C0ED
:102E90000E94B91D8091B8028F7733C0C5318CE58F
:102EA000D80709F472C008F486C0CB3FDC4509F0AE
:102EB00091C08091B9023EC0C115FDE5DF0709F45C
:102EC0005FC058F4CE3F9CE5D90709F444C008F42C
:102ED0003FC08091B90282602DC0C230FDE5DF079E
:102EE00009F475C008F45DC0C330DD4509F072C057
:102EF00080E06EC08091B802816003C08091B8020A
:102F000080618093B80266C08091B80211C0809140
:102F1000B90282608093B9025DC08091B80280627C
:102F2000F0CF8091B8028064ECCF8091B8028860C5
:102F30008460E7CF8160EECF8091B8028E7FE1CFD1
:102F40008091B8028D7FDDCF8091B802877FD9CF85
:102F50008091B90218C08091B9028D7FDBCF80913A
:102F6000B8028F7ECECF8091B8028F7DCACF80917C
:102F7000B8028F7BC6CF8091B802877F8B7FC1CF8D
:102F80008091B9028D7F8E7FC5CF8091B80282FB80
:102F9000222720F991E0922790FB82F990FB83F998
:102FA000B0CF8091B902982F909591708E7F892B28
:102FB00090FB81F9AFCF0E94B91D8091B80287FBC9
:102FC000222720F991E0922790FB87F99ACF81E0A0
:102FD0000E9455248091B8029091B9020E94D0239A
:102FE0000E94B91D80E001C081E0DF91CF9108957A
:102FF000CF93DF9386319C4541F5EB010E94082376
:10300000982F8A812091080130910901882379F055
:103010009A7A81E009F480E08093A701911102C0BF
:1030200069E201C065E3C9010E949C240AC0809145
:10303000A701811102C069E201C065E3C9010E94D4
:103040009E240E94492380E001C081E0DF91CF915E
:1030500008959093AD018093AC010895E091AC0187
:10306000F091AD01309721F00190F081E02D0994AD
:1030700080E00895EF92FF920F931F93CF93DF9319
:10308000E091AC01F091AD013097B1F18C0102807B
:10309000F381E02D099580917D0282FF2DC080FF94
:1030A00004C088E09FE00E949908E80118E082E0EF
:1030B000E82E8FE0F82E80917D0280FF0BC0888182
:1030C0001F928F93FF92EF920E9432090F900F9000
:1030D0000F900F90115021961111EDCF80917D022C
:1030E00080FF0AC080E09FE0DF91CF911F910F9198
:1030F000FF90EF900C949908DF91CF911F910F9161
:10310000FF90EF900895E091AC01F091AD01309700
:1031100039F022E0DC012C930480F581E02D099444
:1031200008952091AA013091AB012817390771F059
:103130009093AB018093AA01E091AC01F091AD01B5
:10314000309721F00680F781E02D099408952091B1
:10315000A8013091A9012817390771F09093A901AE
:103160008093A801E091AC01F091AD01309721F07E
:103170000084F185E02D099408950E943A2560931A
:10318000C7017093C8018093C9019093CA016093ED
:10319000C3017093C4018093C5019093C601089543
:1031A00085B7806885BF85B7806885BF089581E051
:1031B00008950C94D71808950C94DB180C94DB1820
:1031C0000C94DE180C94DB180C94E2180C94DB18A9
:1031D0000E94D0188FE897E20E94AD250E94E61861
:1031E0000C94E4180E9425250E946B0D0E94B225C4
:1031F0000C94E018CF93C82F80917D0282FF1EC0EF
:1032000080FF04C081E29FE00E94990880917D02C6
:1032100080FF0CC01F92CF938CE19FE09F938F9310
:103220000E9432090F900F900F900F9080917D02B5
:1032300080FF04C08AE19FE00E9499088C2FCF9103
:103240000C941D0B9F92AF92BF92CF92DF92EF92A0
:10325000FF920F931F93CF93DF93CDB7DEB72A97DB
:103260000FB6F894DEBF0FBECDBF0E94DC180E94DF
:10327000DB180E947C0D81110E94BD188FEAA82ED8
:1032800081E0B82E00E010E0902E802F0E94140DF7
:10329000D82EF501C1905F01C826B1F40F5F1F4F12
:1032A0000431110589F78FEF89838A831B820E947D
:1032B0002E258160782F9D838C8349815A816B8173
:1032C0008D810E94C4192FC080917D0281FD0E94D2
:1032D0001A0DE12CFF24F3948C2D8F21F1F00E9424
:1032E000D918882399F0EE829F82DF2081E009F4CB
:1032F00080E088870E942E258160782F9A878987B1
:103300004E815F8168858A850E94C419F801E15564
:10331000FE4F8081F826F08206C0E394FF0CF8E0AF
:10332000EF12DACFBBCF0E94E7140E942E189091C3
:10333000AE018917B9F00E942E188093AE012A962B
:103340000FB6F894DEBF0FBECDBFDF91CF911F91B6
:103350000F91FF90EF90DF90CF90BF90AF909F9034
:103360000C94FA182A960FB6F894DEBF0FBECDBFA4
:10337000DF91CF911F910F91FF90EF90DF90CF9051
:10338000BF90AF909F900895DF92EF92FF920F93BE
:103390001F93CF93DF93CDB7DEB72B970FB6F8947B
:1033A000DEBF0FBECDBFF42E052F162FE72ED82E71
:1033B00061110E942823FE01319686E0DF011D92F3
:1033C0008A95E9F77E2D4F2D502F612F8D2D9E81EF
:1033D0000E9472202B960FB6F894DEBF0FBECDBFB1
:1033E000DF91CF911F910F91FF90EF90DF900895A3
:1033F000FC01808191810E94C9220895CF93882386
:1034000009F4A9C0C82F8238C1F40E942E1881FD8A
:10341000A2C069E380910801909109010E949C2457
:103420000E9449232FEF81EE94E02150804090408C
:10343000E1F700C0000069E319C0833801F50E947C
:103440002E1880FD88C063E58091080190910901E4
:103450000E949C240E9449232FEF81EE94E021508A
:1034600080409040E1F700C0000063E580910801D2
:10347000909109010E949E24CF910C944923843895
:10348000C1F40E942E1882FD66C067E48091080195
:10349000909109010E949C240E9449232FEF81EE04
:1034A00094E0215080409040E1F700C0000067E4C4
:1034B000DDCF8CEF8C0F813AF8F48C2F0E94A7118E
:1034C000811149C06C2F80910801909109010E94DF
:1034D0006624882349F06C2F80910801909109019E
:1034E0000E949E240E9449236C2F80910801909194
:1034F00009010E949C24C0CF80E28C0F883048F4E0
:10350000C77081E001C0880FCA95EAF70E940B23BB
:10351000B3CFEBE5EC0FE33040F4F0E0E258FE4FC0
:10352000808190E0CF910C949118E8E5EC0FE731A1
:1035300050F4F0E0EE0FFF1FE05BFE4F80819181C1
:10354000CF910C94A718CD3E30F08C2F0E947513AC
:10355000CF910C944714CF910895882309F464C047
:10356000823879F40E942E1881FF5EC069E3809151
:103570000801909109010E949C240E94492369E35B
:1035800010C08338B1F40E942E1880FF4DC063E54F
:1035900080910801909109010E949C240E94492376
:1035A00063E580910801909109010E949E240C948A
:1035B0004923843879F40E942E1882FF35C067E4CD
:1035C00080910801909109010E949C240E94492346
:1035D00067E4E7CF9CEF980F913A10F4682FE1CFA2
:1035E00090E2980F983050F4877091E001C0990FE5
:1035F0008A95EAF7892F0E941123D9CF9BE5980F6E
:10360000933020F480E090E00C94911898E5980FA6
:10361000973120F480E090E00C94A7188D3E20F0C4
:103620000E94D0130C94471408951F93CF93DF93F7
:10363000182FEB010E94FE19209741F08FE99FE0BF
:103640000197F1F700C000002197F6CF812FDF919D
:10365000CF911F910C94AD1A893319F060E070E09E
:1036600002C060E570E00C94151B882321F00E94D5
:103670000B230C9449230895882321F00E941123E1
:103680000C9449230895CF92DF92EF92FF920F930B
:103690001F93CF93DF937C01D62FC72FFC0112819C
:1036A000058102950F700E940123882399F0112350
:1036B00089F08C2F807F803421F080E28D0F88305C
:1036C00048F082E00E9493230E94012391E0D82ECB
:1036D000D92601C0D12CCC2EC2948FE0C8228C2DCB
:1036E00090E08C30910508F0B6C1FC01E35AFF4F21
:1036F0000C94702D8C2F807FCF70882311F0C29591
:10370000C07F112399F0CC2309F491C180E28D0F81
:10371000883010F0D11104C08C2F0E940B2303C0FD
:103720008C2F0E941B230E94492381C18D2F0E9450
:10373000AD1ACC2309F48FC180E28D0F883010F0D0
:10374000D11104C08C2F0E94112303C08C2F0E9422
:1037500021230E9449237FC18C2F807FCF7080322C
:1037600011F0C295C07FDD2319F0D130C9F022C01D
:10377000112371F0002341F0013031F40E942E2317
:103780008C2B0E94362367C10E942E238C2B1DC0D8
:10379000002319F0013009F45EC10E943F2325C0C7
:1037A000112321F0063008F056C10EC0053008F094
:1037B00052C11BC0112361F0002331F0F701858154
:1037C00080FF35C18F7085838C2F0E94351B43C1CC
:1037D000002359F0D93309F03BC1FFEF07EE13E0A6
:1037E000F15000401040E1F731C18C2F0E943C1B8A
:1037F00032C18C2F86958695837019F0813061F0E7
:103800002AC1112321F08D2F9C2F937002C080E0DC
:1038100090E00E94911827C1112321F08D2F9C2F39
:10382000937002C080E090E00E94A7181CC18D2F09
:10383000112319F00E94751302C00E94D0130E9438
:10384000471411C18C2F837009F047C0111107C1B3
:103850002D2F229526952770220F220F6D2F6F7026
:10386000862F90E0A0E0B0E0022E04C0880F991FE0
:10387000AA1FBB1F0A94D2F7D4FF10C04FE050E03C
:1038800060E070E004C0440F551F661F771F2A9543
:10389000D2F7409550956095709503C040E050E098
:1038A000BA01C695C695C3708A019B01082B192BD6
:1038B0002A2B3B2BC901B801C23049F058F4C13062
:1038C00019F00E944621CBC00E943421C8C00E943A
:1038D0005821C5C00E943221C2C0112319F08C2F7B
:1038E000817001C08695882309F4B9C02D2F2295D7
:1038F00026952770220F220F6D2F6F70862F90E074
:10390000A0E0B0E0022E04C0880F991FAA1FBB1FC1
:103910000A94D2F7D4FF10C04FE050E060E070E0AE
:1039200004C0440F551F661F771F2A95D2F7409594
:1039300050956095709503C040E050E0BA01C6957F
:10394000C695C3708A019B01082B192B2A2B3B2B90
:10395000C901B801C23049F058F4C13019F00E94D1
:103960000B227DC00E94F9217AC00E941D2277C0DF
:103970000E946C2174C0CF70112339F08C2F0E94EB
:1039800092218D2F0E94351B6AC08D2F0E943C1BF7
:103990008C2F0E94B32163C0D23F01F128F4D03FA5
:1039A00041F0D13FA1F03FC0D33FF9F0D43F39F10E
:1039B0003AC0112341F0053008F04DC08C2F8F71B3
:1039C0000E94D82148C0063008F045C0F7CF112327
:1039D00039F08C2F8F710E9492213DC01123C9F3C1
:1039E0008C2F8F710E94B32136C0112329F08C2FA8
:1039F0008F710E947D212FC00E9478212CC011233D
:103A000049F0CF718C2F0E94922163E08C2F0E948D
:103A10007E2321C081E00E9493230230E0F082E007
:103A20000E94932318C0112331F0002391F28D2FAF
:103A30000E94FE1910C0002399F2D93349F41FEFF8
:103A400027EE33E0115020403040E1F700C0000085
:103A50008D2F0E94AD1A88EF8C0D843020F40E94C7
:103A60002E180E941D0BDD20C9F00E94FD2280FD52
:103A700015C0F70112820E94F7220E949221C7010D
:103A80000E946F1D0E94F722DF91CF911F910F912D
:103A9000FF90EF90DF90CF900C94B321DF91CF9106
:103AA0001F910F91FF90EF90DF90CF9008950F93AB
:103AB0001F93CF93DF93EC01688179818A810E9403
:103AC000D4228C010E942F220E942021B801CE0115
:103AD0000E94431BDF91CF911F910F910895CF93C7
:103AE000DF93EC01988189812B813C81232B31F07C
:103AF0008F3F31F481E09F3F19F403C081E001C0A2
:103B000080E080FD19C0CE010E94D60981110CC051
:103B10000E940123882381F08A81882369F082E052
:103B2000DF91CF910C949323CE010E94571DCE01BB
:103B3000DF91CF910C94B109DF91CF91089580E08E
:103B400090E00E94911880E090E00E94A7180E94E7
:103B500028230E942B230E9449230E94FA150C94CB
:103B6000471480910801909109010E94A0240C94AF
:103B70009F1D0E9418230C94B11DE92FE295EF7050
:103B80004E2F50E0FA013297EE30F105B0F4E759CC
:103B9000FF4F0C94702D803F91F018F4883E68F42C
:103BA0000EC0843F51F40BC0883E48F0813F29F499
:103BB00006C093FB882780F9089580E0089581E08E
:103BC00008950E94C9220E94BD1D0895CF93DF93DE
:103BD00000D000D01F92CDB7DEB70F900F900F909E
:103BE0000F900F90DF91CF910895CF93DF9300D086
:103BF00000D000D0CDB7DEB726960FB6F894DEBF62
:103C00000FBECDBFDF91CF9108951F93CF93DF9368
:103C1000C091CC0116E08091CD01C81799F0D0E099
:103C20001C9FF0011D9FF00D1124E253FE4F4081B7
:103C3000518162817381848195810E94F51D219655
:103C4000C770E9CFDF91CF911F9108954091FE0198
:103C50005091FF0160910002709101028091020277
:103C6000909103020C94F51D0F931F93CF93DF9354
:103C70008091030282958F7009F05DC080910002EF
:103C8000882309F458C08091CC011091CD01609136
:103C9000FE017091FF01C0910102D091020291E0FA
:103CA0006F3F09F090E0292F06E0811709F443C027
:103CB000209721F07F3F21F030E003C031E001C0C8
:103CC000322F90E030FD34C0089FF001099FF00DC5
:103CD0001124DF01A253BE4F11963C911197371367
:103CE00027C03C91361324C012963C911297311193
:103CF0001FC013964D915C9114974C1B5D0B483C73
:103D00005105B0F4809103028F70806180930302AB
:103D1000ED52FE4F80818F70806180838EEF91E045
:103D20000E946F1DDF91CF911F910F910C94051E82
:103D300001968770BACFDF91CF911F910F910895AF
:103D40009F92AF92BF92CF92DF92EF92FF920F932A
:103D50001F93CF93DF93CDB7DEB761970FB6F8947B
:103D6000DEBF0FBECDBF8C0185E0F801DE011D96E0
:103D700001900D928A95E1F7F80140815181E2802E
:103D80009091FE016091FF012091010230910202A9
:103D90002115310531F06F3F31F481E09F3F19F477
:103DA00003C081E001C080E0F82FF1709F2E80FDFC
:103DB00046C1F801A380B4808EEFC82E81E0D82ED2
:103DC000F0900002F501E21BF30BFF2009F4DFC0C5
:103DD00080910302E83CF10508F09BC0282F207F6A
:103DE00009F052C0561313C0491311C0FE2CE11044
:103DF0000EC08F708061809303020E94261EC60150
:103E00000E946F1D80910302F801858358C1AB2881
:103E100031F05F3F31F481E04F3F19F403C081E09E
:103E200001C080E080FD03C081E08E2502C080E0FB
:103E300090E0F82FF170FF2E80FF1CC08091CC0124
:103E40002091CD0136E0821709F417C190E0389F28
:103E5000F001399FF00D1124E253FE4F618156139A
:103E600006C06081461303C06281E61203C001965A
:103E70008770E9CFFE2CEE2009F421C18091030266
:103E80008160809303025AC0561306C0491304C0D0
:103E9000E11002C0F8019FC04D875E878D859E8529
:103EA0000E94E11D882379F1EE2069F1209103023F
:103EB000822F82958F7090E0029774F08091FE01BE
:103EC0009091FF0198878F831986BB86AA862C87DD
:103ED000CE0107960E946F1D86E0F801AEEFB1E0BB
:103EE00001900D928A95E1F70E94341E0E94261ED1
:103EF0000DC0561729F14D875E878D859E850E94DE
:103F0000E11D81112CC0C8010E946F1DFF24F39494
:103F1000D6C0282F207F69F77A2DB98AA88A6E2DFE
:103F200089890E94E61D8EEF91E00E946F1D86E058
:103F3000F60111928A95E9F70E94261EF12CBFC066
:103F40004913D9CFE110D7CFF8018583C8010E946A
:103F50006F1D86E0F60111928A95E9F7B0C0EE2058
:103F600091F220910302822F82958F7090E0029748
:103F70000CF4B2CF8091FE019091FF019A83898366
:103F80001B82BD82AC822E83CE010196A3CFE83C7A
:103F9000F10508F047C0FE2CEE2009F4B4CF56130B
:103FA00030C049132EC02091030220FD21C0822F72
:103FB00082958F70482F50E041155105C9F0F801E6
:103FC00025834F30510541F08F5F982F9295907F58
:103FD000822F8F70892B8583C8010E946F1D86E018
:103FE000F801AEEFB1E001900D928A95E1F742C081
:103FF00086E0F801AEEFB1E001900D928A95E1F70D
:104000005EC04D875E878D859E850E94E11D811172
:1040100063CF80910302816080930302C8010E94F4
:104020006F1D4DC07A2DB98AA88A6E2D89890E948C
:10403000E61D86E0F60111928A95E9F71BC0EE2095
:1040400009F461CF4D875E878D859E850E94E11DB5
:10405000F82E882309F457CF86E0F801AEEFB1E0DF
:1040600001900D928A95E1F78EEF91E00E94F81988
:104070000E94341E0E94261E22C04D875E878D85B9
:104080009E850E94C922292F22952F70223028F464
:104090009F7039F0811105C00BC0243028F49F7047
:1040A00049F4805E883020F0C8010E946F1D9F2C6B
:1040B000F92C05C0F8019581907F99F7F9CF8F2DE4
:1040C00061960FB6F894DEBF0FBECDBFDF91CF91E2
:1040D0001F910F91FF90EF90DF90CF90BF90AF9026
:1040E0009F9008951F93CF93DF93CDB7DEB72C97A2
:1040F0000FB6F894DEBF0FBECDBF4F8358876987D8
:104100007A878B879C87CE0107960E94A01E882302
:10411000D1F09F8188852A853B85232B31F08F3F05
:1041200031F481E09F3F19F403C081E001C080E0D9
:1041300080FD47C04F81588569857A858B859C8530
:104140000E94F51D3EC086E0FE013796DE01119605
:1041500001900D928A95E1F7FF81E8856A857B855C
:104160006115710531F0EF3F31F481E0FF3F19F443
:1041700003C081E001C080E080FD23C02091CD011B
:1041800030E0C9010196877099274091CC0150E039
:1041900084179507F1F1F983EA837D836C8396E0B8
:1041A000929FD001939FB00D1124A253BE4FFE01E8
:1041B000319601900D929A95E1F78093CD010E947E
:1041C000051E16E08091CC019091CD01891771F107
:1041D000189FC001112482539E4F0E94A01E882365
:1041E00029F1E091CC011E9FF0011124E253FE4F12
:1041F0004081518162817381848195810E94F51D86
:104200008091CC0190E00196877099278093CC0132
:10421000D9CF0E94B91D1092CD011092CC01EEEFC2
:10422000F1E086E0DF011D928A95E9F72C960FB642
:10423000F894DEBF0FBECDBFDF91CF911F910895DF
:10424000089508950C9421210C9422210E94242188
:1042500060936C0270936D0280936E0290936F0274
:104260000C949F1D0C9426210F931F9300916C02B8
:1042700010916D0220916E0230916F02602B712BB4
:10428000822B932B1F910F910C9426210F931F9338
:1042900000916C0210916D0220916E0230916F02BC
:1042A00060237123822393231F910F910C94262165
:1042B0000F931F9300916C0210916D0220916E027A
:1042C00030916F0260277127822793271F910F91EA
:1042D0000C9426210C9421210E946A21609368028B
:1042E0007093690280936A0290936B020C949F1DF5
:1042F00060E070E0CB010C946C210F931F9341E0C0
:1043000050E060E070E08A019B0104C0000F111FC3
:10431000221F331F8A95D2F7C901B8011F910F914F
:104320000C946C210F931F9341E050E060E070E02B
:1043300004C0440F551F661F771F8A95D2F78091DE
:10434000680290916902A0916A02B0916B028A01A1
:104350009B01082B192B2A2B3B2BC901B8011F915C
:104360000F910C946C210F931F9341E050E060E09B
:1043700070E004C0440F551F661F771F8A95D2F75F
:104380004095509560957095809168029091690272
:10439000A0916A02B0916B028A019B010823192344
:1043A0002A233B23C901B8011F910F910C946C2162
:1043B0000F931F9341E050E060E070E004C0440FB1
:1043C000551F661F771F8A95D2F7809168029091DA
:1043D0006902A0916A02B0916B028A019B010827D1
:1043E00019272A273B27C901B8011F910F910C9467
:1043F0006C210F931F930091680210916902209124
:104400006A0230916B02602B712B822B932B1F91D0
:104410000F910C946C210F931F93009168021091DF
:10442000690220916A0230916B026023712382231A
:1044300093231F910F910C946C210F931F93009164
:1044400068021091690220916A0230916B02602724
:104450007127822793271F910F910C946C21089547
:1044600028E0929F800D1124E82FE695E695E695C9
:10447000877051E001C0550F8A95EAF785E0E89F03
:10448000F0011124EC5FFD4F20E030E070E040814E
:10449000CB01022E02C0969587950A94E2F78170AF
:1044A000819584278523842781932F5F3F4F253073
:1044B000310569F7089528E0929F800D1124682F37
:1044C000669566956695982F977085E0689FB00110
:1044D000112440E050E080E0FB01E40FF51FEC5FA9
:1044E000FD4F208130E0092E02C0369527950A94B1
:1044F000E2F721703327042E01C0220F0A94EAF755
:10450000822B4F5F5F4F4530510531F70895BF92C1
:10451000CF92DF92EF92FF920F931F93CF93DF938F
:104520008C01C0906802D0906902E0906A02F0901D
:104530006B0280916C0290916D02A0916E02B0911D
:104540006F02C82AD92AEA2AFB2ACFE1D0E0D70194
:10455000C6010C2E04C0B695A795979587950A9429
:10456000D2F780FD04C0219790F7B12C07C0BC2E74
:10457000B8018C2F0E943B0B0197A9F38B2DDF9183
:10458000CF911F910F91FF90EF90DF90CF90BF9050
:104590000895CF93DF93EC010E948722BE010E9411
:1045A0003B0BDF91CF9108951F93CF93DF93EB01E6
:1045B0009091CB01992321F0CB010E94C92213C015
:1045C000882349F0CB010E948722182F682FCE0143
:1045D0000E94302204C0CB010E945B22182FBE0132
:1045E000812F0E943B0BDF91CF911F910895809105
:1045F00070028595859585950895809170028770E4
:10460000089590917002977081E009F480E0089518
:1046100080917C02089590917C02892B80937C028A
:104620000895809590917C02892380937C0208955F
:1046300010927C02089590917B02892B80937B02DB
:104640000895809590917B02892380937B02089541
:1046500010927B02089510927A020895809171025F
:10466000089508950C9431230C9432239091710293
:10467000981721F0809371020C943423089580914F
:104680007102882329F01092710280E00C94342387
:104690000895E0910801F091090180917C028083E6
:1046A000E0910801F0910901908180917B02892BB2
:1046B0008083E0910801F0910901908180917A0254
:1046C000892B808380917102882381F0E091080119
:1046D000F09109019081892B80838091080190914C
:1046E00009010E945A2481110E943F2380910801F0
:1046F000909109010C943A180C94312398E0899F09
:1047000090011124262B209370020E949221809107
:1047100070028595859585950C947C231092700286
:1047200080E00C947C2320917002809582238093FA
:104730007002982F977079F430E0482F082E000C03
:10474000550B2417350739F08595859585950E9479
:10475000B3210C948E23089580E090E00E94922D66
:1047600021E08B3E9E4F09F020E0822F089582E0E9
:1047700090E00C948A2D83E090E00C948A2DCF93E6
:1047800084E090E00E948A2DC82F81E290E00E9490
:104790008A2D2C2F30E0A901582BCA01CF91089502
:1047A000CF93C92F682F84E090E00E94982D6C2F42
:1047B00081E290E0CF910C94982DAB01BC018FE089
:1047C00090E00C94AA2DAB01BC0183E190E00C9425
:1047D000AA2D60E070E0CB010C94E32360E070E070
:1047E000CB010E94DD230C94E9236BEE7EEF80E089
:1047F00090E00E94B62D60E082E090E00E94982D4B
:1048000060E083E090E00E94982D10926C0210927C
:104810006D0210926E0210926F0260E084E090E0F0
:104820000E94982D60E081E290E00E94982D60E067
:1048300085E090E00E94982D60E086E090E00E9484
:10484000982D6FEF87E090E00E94982D40E050E0B7
:10485000BA0188E090E00E94AA2D60E08DE090E02F
:104860000E94982D40E050E0BA0188E190E00E945B
:10487000AA2D60E087E190E00E94982D40E050E092
:10488000BA018CE190E00E94AA2D60E080E290E005
:104890000E94982D40E050E0BA0188E190E00E942B
:1048A000AA2D0C94EE230C94F523682F8EE090E053
:1048B0000C94982DFC01329697E080E0915029F0FD
:1048C00021912223D9F38F5FF9CF0895662349F010
:1048D000FC01329608962191621729F0E817F90732
:1048E000D1F780E0089581E008959C01FC013296A3
:1048F0009FEF80E04191461789F09F3F19F44111E5
:1049000001C0982F8F5F8630A9F79F3F39F0F901DA
:10491000E90FF11D97FDFA956283089508959C01B2
:104920002A5F3F4FFC014281461301C0128201966B
:1049300082179307B9F708950C9475240C948F246B
:10494000029626E0FC0111922A95E9F70895089550
:104950000C94A7240C94A724CF930E94AA240E940D
:104960007C0D0E94A824C0E08C2F0E94140D8111A0
:1049700004C0CF5FC431C1F701C081E0CF91089579
:104980000C94A7240C94C0248091BE02843049F179
:104990000E94C22480E00E941D0B10927E0220E43F
:1049A00088E190E00FB6F894A895809360000FBE60
:1049B0002093600083B7817F846083BF83B7816069
:1049C00083BF7894889583B78E7F83BF0FB6F894A2
:1049D000A8958091600088618093600010926000CB
:1049E0000FBE08950C94A7240E94B91D0E942E1892
:1049F0000E941D0B0C94F2241F920F920FB60F927F
:104A000011248F939F93AF93BF9380917E02811166
:104A100013C08091B4029091B502A091B602B091FA
:104A2000B7024196A11DB11D8093B4029093B502C7
:104A3000A093B602B093B702BF91AF919F918F91AF
:104A40000F900FBE0F901F90189582E084BD93E0E9
:104A500095BD9AEF97BD80936E0008952FB7F89497
:104A60008091B4029091B502A091B602B091B702C4
:104A70002FBF08952FB7F8946091B4027091B502DA
:104A80008091B6029091B7022FBF08959C014FB755
:104A9000F8948091B4029091B502A091B602B091C1
:104AA000B7024FBF821B930B089578941F920F9209
:104AB0000FB60F9211248F939F93AF93BF93809162
:104AC000B4029091B502A091B602B091B7020196DE
:104AD000A11DB11D8093B4029093B502A093B602BC
:104AE000B093B702BF91AF919F918F910F900FBE7E
:104AF0000F901F901895F89481E08093E00080E279
:104B00008093D800E9ECF0E010828FE19EE40197F9
:104B1000F1F700C000001DBA109268001CBC10BE66
:104B20001FBA10927A0010926E0010926F001092CD
:104B30007100109272001082ECEBF0E0108214B859
:104B400017B81AB81DB810BA108215B818B81BB823
:104B50001EB811BA0C94003F089590939101809370
:104B6000900108950E94AC23811102C00E94532439
:104B70000E94B72380937D020E94BF239093B902C5
:104B80008093B8020E94BB23682F70E080E090E021
:104B90000E943221609168027091690280916A02DC
:104BA00090916B020C946A2180918A020895CF93B0
:104BB000DF9300D01F92CDB7DEB79091BE02943044
:104BC00019F589837B836A8382E08093E9008FEF04
:104BD0009091E800815095FD06C095ED9A95F1F70A
:104BE00000008111F5CF8091E80085FF0DC040E005
:104BF00050E063E070E0CE0101960E94B3288091FE
:104C0000E8008E778093E8000F900F900F90DF916F
:104C1000CF910895BC0184E00C94D725BC0183E0BA
:104C20000C94D72522E02093E9002FEF3091E80083
:104C3000215035FD06C035ED3A95F1F70000211100
:104C4000F5CF2091E80025FF0BC040E050E066E082
:104C500070E00E94B3288091E8008E778093E8008E
:104C60000895CF93DF9321E02093E9002FEF309157
:104C7000E800215035FD06C035ED3A95F1F700000A
:104C80002111F5CF2091E80025FF14C0EC0140E090
:104C900050E068E070E00E94B3288091E8008E77D1
:104CA0008093E80088E0FE01A2E8B2E001900D9256
:104CB0008A95E1F7DF91CF91089589E59FE00E9401
:104CC00099088091BD02811109C00E94442A0E9466
:104CD000A12A8091E20084608093E200089585E536
:104CE0009FE00E9499081092BD02089581E59FE01F
:104CF0000C9499088DE49FE00C94990889E49FE056
:104D00000C949908209180022F5F822F62E30E9409
:104D1000502D992319F0209380020895109280025B
:104D200080918102882371F18091BE02843041F527
:104D30008091E9008F702091EC00922F917020FDFE
:104D400090E8892B93E09093E9009091EB0090FF1D
:104D500014C09091EE0097FF10C09091E80095FF6D
:104D600003C01092F100F9CF9091E80090FF05C0C8
:104D70009091E8009E779093E8008F708093E9000F
:104D800010928102089542E061EC81E00E94BD2909
:104D900042E261EC82E00E94BD2942E261EC83E0E4
:104DA0000C94BD298091C002833009F460C030F4B6
:104DB000813071F0823009F499C008958A3009F485
:104DC00085C08B3009F46BC0893009F0A7C020C0C2
:104DD0008091BF02813A09F0A1C08091E800877FED
:104DE0008093E8008091C3029091C402892B21F442
:104DF00068E082E892E003C060E080E090E070E06C
:104E00000E94FE288091E8008B778093E800089547
:104E10008091BF02813209F081C08091C3029091DC
:104E2000C402029708F07AC08091E800877F8093DF
:104E3000E8008091E80082FD05C08091BE028111EA
:104E4000F8CF6CC02091F3008091F20090E0922B9B
:104E5000029729F48091F1008B7F813021F48091B9
:104E6000F10080938A028091E8008B7753C0809193
:104E7000BF02813A09F052C08091C3029091C402EE
:104E8000892B09F04BC08091E800877F8093E80070
:104E90008091E80080FFFCCF8091140136C08091A2
:104EA000BF028132D9F58091C3029091C402892B4F
:104EB000A9F58091E800877F8093E8000E94F2299D
:104EC0008091C102809314010C94B91D8091BF029E
:104ED000813221F58091E800877F8093E8000E946D
:104EE000F2298091C20280938B0208958091BF02C3
:104EF000813AA1F48091E800877F8093E800809157
:104F0000E80080FFFCCF80918B028093F1008091BC
:104F1000E8008E778093E8000C94F22908959FB7FB
:104F2000F894109281029FBF9091BE02943009F0D4
:104F300057C09091E9009F703091EC00232F2170B1
:104F400030FD20E8922B23E02093E9002091EB0034
:104F500020FF43C02091EE0027FF3FC020917F0239
:104F6000222321F02091E80025FF37C010927F0214
:104F700026E03091E80035FD15C03091BE02343096
:104F800061F53091EB0035FD28C0215021F481E01E
:104F900080937F0222C0EFE9FFE03197F1F700C074
:104FA0000000E7CF8093F1008091E80085FD0AC002
:104FB0008091E80080FFFCCF8091E8008E7780939D
:104FC000E80006C08FB7F89421E0209381028FBFDC
:104FD0009F709093E90080E008959F709093E9009E
:104FE0008FEF089584B7877F84BF0FB6F894A89594
:104FF00080916000886180936000109260000FBE15
:1050000090E080E80FB6F89480936100909361007F
:105010000FBE0E94E8180E94442A0E94A12A809193
:10502000E20084608093E20078940E94352D0E9413
:10503000F2188AE091E00E94291888E39FE00E941C
:1050400099088091BE028530C9F484E39FE00E94F4
:1050500099088091BE02853079F40E94C424809121
:10506000BC028823B1F30E94AC24882391F30E94F0
:105070009D280E94B91DEDCF0E94F4240E942219A0
:105080000E94DC180E94DB18DCCF0C944728292FE3
:10509000332723303105C9F060F42130310581F028
:1050A0002230310509F041C08BE590E021E93FE075
:1050B00040C021323105E1F02232310531F135C0F5
:1050C00082E190E02CEE3FE034C0992781309105D9
:1050D00049F028F0029749F5EDE5FFE005C0EDE85D
:1050E000FFE002C0E3E7FFE0849190E09F0121C070
:1050F00063307105D0F4660F771FFB01E657FE4F52
:105100002081318189E090E014C06330710568F43A
:10511000FB01EE0FFF1FEC57FE4F20813181FB0199
:10512000EF57FE4F808190E004C080E090E020E0E7
:1051300030E0FA0131832083089580E189BD82E166
:1051400089BD09B400FEFDCF8091D8008F7D80938A
:10515000D8008091E00082608093E0008091E000C0
:1051600081FDFCCF0895CF92DF92EF92FF920F93D3
:105170001F93CF93DF93EC018B017A010E94112AD8
:10518000811133C0E114F10439F0F701808191817C
:10519000081B190BC80FD91FC12CD12C01151105E3
:1051A00019F18091E80085FD16C08091E8008E77A6
:1051B0008093E800E114F10449F0F70180819181C6
:1051C000C80ED91ED182C08285E00FC00E94112A6C
:1051D000882321F30AC089918093F10001501109BD
:1051E000FFEFCF1ADF0ADACF80E0DF91CF911F9176
:1051F0000F91FF90EF90DF90CF9008952091C5021E
:105200003091C6022617370748F06115710539F449
:105210002091E8002E772093E80001C0B901FC013D
:1052200020E06115710579F18091BE028823F1F1CA
:105230008530F1F18091E80083FD3CC08091E80069
:1052400082FD2EC08091E80080FFEBCF2091F3001B
:105250008091F20090E0922B6115710551F0883039
:10526000910538F421912093F10061507109019664
:10527000F3CF21E0089709F020E08091E8008E77D5
:105280008093E800CECF2111CFCF0AC08091BE021B
:10529000882361F0853061F08091E80083FD0AC0C9
:1052A0008091E80082FFF2CF80E0089582E00895C7
:1052B00083E0089581E008952091C5023091C602EF
:1052C0002617370748F06115710539F42091E80079
:1052D0002E772093E80001C0B901FC0120E06115A0
:1052E000710591F18091BE02882309F440C0853098
:1052F00009F43FC08091E80083FD3DC08091E80043
:1053000082FD2FC08091E80080FFE9CF2091F3005B
:105310008091F20090E0922B6115710559F0883070
:10532000910540F424912093F10031966150710968
:105330000196F2CF21E0089709F020E08091E80083
:105340008E778093E800CBCF2111CCCF0AC080911B
:10535000BE02882361F0853061F08091E80083FD12
:105360000AC08091E80082FFF2CF80E0089582E0D9
:10537000089583E0089581E00895982F973068F5A7
:105380009093E900981739F07091EC002091ED00AE
:105390005091F00003C0242F762F50E021FD02C071
:1053A0009F5FECCF3091EB003E7F3093EB0030916C
:1053B000ED003D7F3093ED003091EB003160309394
:1053C000EB007093EC002093ED005093F0002091DF
:1053D000EE0027FDE5CF80E008958F708093E9000F
:1053E00081E008958091BF0287FF11C08091E8009D
:1053F00082FD05C08091BE028111F8CF11C080915D
:10540000E8008B770BC08091BE02882349F0809121
:10541000E80080FFF8CF8091E8008E778093E80065
:1054200008952091E4003091E50095E64091EC006C
:10543000842F817040FF23C08091E80080FD1DC053
:105440008091BE02882399F0853099F08091EB001D
:1054500085FD11C04091E4005091E5002417350707
:1054600029F3915011F09A01E1CF84E0089582E090
:10547000089583E0089581E0089580E008954091C3
:10548000E80042FFDDCF08950E94B22A0E94BA2AA6
:10549000E0EEF0E0808181608083E8EDF0E08081E3
:1054A0008F77808319BCA7EDB0E08C918E7F8C93B1
:1054B00080818F7E80831092BD0208950F931F9389
:1054C000CF93DF930E94B22A0E94BA2AC8EDD0E09F
:1054D00088818F77888388818068888388818F7DA1
:1054E000888319BC1092BE021092BA021092BC02BC
:1054F0001092BB0200EE10E0F80180818B7F808368
:1055000088818160888342E060E080E00E94BD295C
:10551000E1EEF0E080818E7F8083E2EEF0E080813A
:1055200081608083808188608083F80180818E7FA4
:105530008083888180618883DF91CF911F910F9153
:105540000895E8EDF0E080818F7E8083E7EDF0E064
:1055500080818160808384E082BF81E08093BD028E
:105560000C945E2AE8EDF0E080818E7F80831092BB
:10557000E20008951092DA001092E10008951F925F
:105580000F920FB60F9211242F933F934F935F9377
:105590006F937F938F939F93AF93BF93EF93FF93FB
:1055A0008091E10082FF0BC08091E20082FF07C082
:1055B0008091E1008B7F8093E1000E9482268091A0
:1055C000DA0080FF1FC08091D80080FF1BC080914F
:1055D000DA008E7F8093DA008091D90080FF0DC0C1
:1055E00080E189BD82E189BD09B400FEFDCF81E083
:1055F0008093BE020E945D2605C019BC1092BE02B7
:105600000E946F268091E10080FF19C08091E20026
:1056100080FF15C08091E2008E7F8093E200809130
:10562000E20080618093E2008091D80080628093E4
:10563000D80019BC85E08093BE020E947A26809132
:10564000E10084FF30C08091E20084FF2CC080E143
:1056500089BD82E189BD09B400FEFDCF8091D800EB
:105660008F7D8093D8008091E1008F7E8093E10050
:105670008091E2008F7E8093E2008091E200816061
:105680008093E2008091BA02882311F084E007C081
:105690008091E30087FD02C081E001C083E0809338
:1056A000BE020E947E268091E10083FF29C0809186
:1056B000E20083FF25C08091E100877F8093E100B5
:1056C00082E08093BE021092BA028091E1008E7F48
:1056D0008093E1008091E2008E7F8093E2008091D0
:1056E000E20080618093E20042E060E080E00E949E
:1056F000BD298091F00088608093F0000E9476269A
:10570000FF91EF91BF91AF919F918F917F916F9199
:105710005F914F913F912F910F900FBE0F901F906F
:1057200018951F920F920FB60F9211242F933F934B
:105730004F935F936F937F938F939F93AF93BF9399
:10574000CF93DF93EF93FF93C091E900CF708091E7
:10575000EC00D82FD17080FDD0E81092E900809144
:10576000F000877F8093F00078940E94D52B1092F0
:10577000E9008091F00088608093F000CD2BCF701D
:10578000C093E900FF91EF91DF91CF91BF91AF916D
:105790009F918F917F916F915F914F913F912F9149
:1057A0000F900FBE0F901F9018951F93CF93DF930C
:1057B000CDB7DEB7AA970FB6F894DEBF0FBECDBF48
:1057C000EFEBF2E08091F100819322E0E73CF207F9
:1057D000C9F70E94D2268091E80083FF2EC18091F4
:1057E000BF029091C002492F50E04A30510508F0A5
:1057F00024C1FA01E958FF4F0C94702D803821F034
:10580000823809F01AC108C08091BB029091BC0295
:10581000992389F082600FC08091C3028F70873016
:1058200008F00BC18093E9008091EB0085FB88278D
:1058300080F91092E9009091E800977F9093E8003A
:105840008093F1001092F100D1C0282F2D7F09F034
:10585000F4C0882319F0823061F0EFC08091C1025A
:10586000813009F0EAC0933009F080E08093BC02F7
:105870002EC08091C10281112AC08091C3028F7015
:105880002FEF280F263008F0D8C08093E900209130
:10589000EB0020FF1CC0933021F48091EB0080626C
:1058A00014C09091EB0090619093EB0021E030E008
:1058B000A90102C0440F551F8A95E2F74093EA0000
:1058C0001092EA008091EB0088608093EB001092C8
:1058D000E9008091E800877F8093E8000E94F22928
:1058E000ACC08111AAC01091C1021F778091E30062
:1058F0008078812B8093E3008091E800877F8093FC
:10590000E8000E94F2298091E80080FFFCCF80919E
:10591000E30080688093E300111102C082E001C0BF
:1059200083E08093BE0289C08058823008F085C031
:105930008091C1029091C2028C3D53E0950779F5A8
:1059400083E08A838AE289834FB7F894DE01139655
:1059500020E03EE051E2E32FF0E050935700E49165
:1059600020FF03C0E295EF703F5FEF708E2F90E055
:10597000EA3010F0C79601C0C0968D939D932F5FBB
:10598000243149F74FBF8091E800877F8093E8007A
:105990006AE270E0CE0101960E94FE2816C0609176
:1059A000C3027091C402AE014F5F5F4F0E94452851
:1059B000BC01892B09F441C09091E800977F909336
:1059C000E80089819A810E945C298091E8008B77A8
:1059D0008093E80032C0803881F58091E800877FAD
:1059E0008093E8008091BA028093F1008091E800F2
:1059F0008E7772CF811121C08091C1029091C20235
:105A000099270297D4F48091E800877F8093E8007B
:105A10008091C1028093BA020E94F2298091BA0259
:105A2000811106C08091E30087FD02C081E001C0C2
:105A300084E08093BE020E94C3268091E80083FF29
:105A40000AC08091E800877F8093E8008091EB0096
:105A500080628093EB00AA960FB6F894DEBF0FBE6B
:105A6000CDBFDF91CF911F910895CF938091BE025A
:105A70008823A1F0C091E900CF709091EC00892FAC
:105A8000817090FD80E8C82B1092E9008091E800B9
:105A900083FD0E94D52BCF70C093E900CF9108956C
:105AA000991B79E004C0991F961708F0961B881F70
:105AB0007A95C9F78095089597FB072E16F4009400
:105AC00007D077FD09D00E94762D07FC05D03EF463
:105AD000909581959F4F0895709561957F4F08959A
